:100000000C942A000C9447000C9447000C94470071
:100010000C9447000C9447000C9447000C94470044
:100020000C9447000C9447000C9447000C94470034
:100030000C9447000C9447000C9447000C94470024
:100040000C9447000C9447000C9447000C94470014
:100050000C94470011241FBECFE5D8E0DEBFCDBF12
:1000600013E0A0E6B0E0ECE6FEE102C005900D92E0
:10007000AC3CB107D9F713E0ACECB3E001C01D9282
:10008000A93DB107E1F70E946D0E0C94340F0C945A
:100090000000EF92FF920F931F937B018C0120E0F1
:1000A00030E040E05FE40E94490388238CF0C801FF
:1000B000B70120E030E040E05FE40E94C1010E940F
:1000C000A9039B01AC01205030404040504806C07D
:1000D000C801B7010E94A9039B01AC01B901CA0183
:1000E0001F910F91FF90EF900895A0E0B0E0EBE733
:1000F000F0E00C94FD0EDC012B01FA019C91923092
:1001000008F439C1EB018881823008F433C194309E
:1001100069F4843009F02FC111969C91119789815F
:10012000981709F428C1A6E6B3E025C1843009F484
:1001300021C18230A9F4923009F01DC19A01AD01AC
:1001400088E0EA010990AE01E90109929E0181501F
:10015000C1F7E201898111969C918923818308C1AD
:10016000923009F407C112962D903C901397EB0141
:100170008A819B811496AD90BD90CD90DC901797AD
:10018000EC80FD800E811F819101281B390BB90184
:1001900037FF04C066277727621B730B6032710537
:1001A0000CF061C0121613066CF537014801062EDB
:1001B00004C096948794779467940A94D2F721E0C8
:1001C00030E040E050E004C0220F331F441F551FB1
:1001D0006A95D2F721503040404050402E213F21B7
:1001E00040235123211531054105510521F021E01E
:1001F00030E040E050E079018A01E628F72808293C
:1002000019293CC0232BD1F1260E371E350146019A
:10021000062E04C096948794779467940A94D2F734
:1002200021E030E040E050E004C0220F331F441FC3
:10023000551F6A95D2F721503040404050402A2146
:100240003B214C215D21211531054105510521F04E
:1002500021E030E040E050E059016A01A628B728CB
:10026000C828D9280BC0821593052CF01C01AA249C
:10027000BB24650103C0EE24FF24870111969C91E5
:10028000D20111968C91981709F445C0992339F041
:10029000A80197012A193B094C095D0906C0A6016E
:1002A00095012E193F09400B510B57FD08C01182D3
:1002B0003382228224833583468357831DC081E0A5
:1002C00081833382228288279927DC01821B930B4A
:1002D000A40BB50B84839583A683B7830DC0220F2F
:1002E000331F441F551F24833583468357838281E0
:1002F000938101979383828324813581468157813D
:10030000DA01C9010197A109B1098F5F9F4FAF4F72
:10031000BF4328F30BC0918333822282EA0CFB1C7B
:100320000C1D1D1DE482F5820683178383E0808304
:10033000248135814681578157FF1AC0C901AA27F8
:1003400097FDA095BA2F81709070A070B0705695EF
:10035000479537952795822B932BA42BB52B848318
:100360009583A683B7838281938101969383828349
:10037000DF0101C0D201CD01CDB7DEB7E2E10C94BF
:10038000190FA0E2B0E0E7ECF1E00C94090F6983EB
:100390007A838B839C832D833E834F835887E9E048
:1003A000EE2EF12CEC0EFD1ECE010196B7010E943F
:1003B000D2048E010F5E1F4FCE010596B8010E9438
:1003C000D2048A8991E089278A8BC701B801AE01DE
:1003D000475E5F4F0E9475000E94FD03A096E6E015
:1003E0000C94250FA0E2B0E0E8EFF1E00C94090FC7
:1003F00069837A838B839C832D833E834F835887C5
:10040000F9E0EF2EF12CEC0EFD1ECE010196B701A6
:100410000E94D2048E010F5E1F4FCE010596B801D7
:100420000E94D204C701B801AE01475E5F4F0E942F
:1004300075000E94FD03A096E6E00C94250FA0E253
:10044000B0E0E5E2F2E00C94FD0E69837A838B83E1
:100450009C832D833E834F835887CE010196BE0136
:10046000675F7F4F0E94D204CE010596BE016F5E8A
:100470007F4F0E94D2049985923088F0898982301A
:10048000C8F0943019F4823051F404C0843029F457
:10049000923081F486E693E0C6C0923049F420E0C1
:1004A0009A858A89981321E02A87CE010996BBC0D4
:1004B000823049F420E09A858A89981321E02A8BBA
:1004C000CE014196B0C02D843E844F8458886D88FB
:1004D0007E888F88988CEE24FF248701AA24BB2471
:1004E000650140E050E060E070E0E0E0F0E0C10174
:1004F00081709070892BE9F0E60CF71C081D191D1E
:100500009A01AB012A0D3B1D4C1D5D1D80E090E062
:10051000A0E0B0E0E614F7040805190520F481E036
:1005200090E0A0E0B0E0BA01A901480F591F6A1F8E
:100530007B1FAA0CBB1CCC1CDD1C97FE08C081E0F5
:1005400090E0A0E0B0E0A82AB92ACA2ADB2A3196B6
:10055000E032F10549F0660C771C881C991C569412
:10056000479437942794C3CFFA85EA892B893C892D
:100570008B859C85280F391F2E5F3F4F17C0CA01FE
:1005800081709070892B61F016950795F794E79428
:1005900080E090E0A0E0B0E8E82AF92A0A2B1B2BC3
:1005A00076956795579547952F5F3F4F77FDE7CF36
:1005B0000CC0440F551F661F771F17FD4160EE0CDE
:1005C000FF1C001F111F21503040403090E05907A0
:1005D00090E0690790E4790760F32B8F3C8FDB0193
:1005E000CA018F779070A070B07080349105A1051A
:1005F000B10561F447FD0AC0E114F10401051105DC
:1006000029F0405C5F4F6F4F7F4F40781A8EFE1786
:1006100011F081E08A8F4D8F5E8F6F8F78A383E01A
:10062000898FCE0149960E94FD03A096E2E10C94C9
:10063000190FA8E1B0E0EFE1F3E00C94090F698332
:100640007A838B839C832D833E834F83588789E0F5
:10065000E82EF12CEC0EFD1ECE010196B7010E9492
:10066000D2048E010F5E1F4FCE010596B8010E9485
:10067000D2048985823040F08989823028F0C70110
:10068000B8010E944A0501C08FEF6896E6E00C941D
:10069000250FA8E1B0E0EFE4F3E00C94090F6983C3
:1006A0007A838B839C832D833E834F83588789E095
:1006B000E82EF12CEC0EFD1ECE010196B7010E9432
:1006C000D2048E010F5E1F4FCE010596B8010E9425
:1006D000D2048985823040F08989823028F0C701B0
:1006E000B8010E944A0501C08FEF6896E6E00C94BD
:1006F000250FA8E1B0E0EFE7F3E00C94090F698360
:100700007A838B839C832D833E834F83588789E034
:10071000E82EF12CEC0EFD1ECE010196B7010E94D1
:10072000D2048E010F5E1F4FCE010596B8010E94C4
:10073000D2048985823040F08989823028F0C7014F
:10074000B8010E944A0501C081E06896E6E00C9479
:10075000250FACE0B0E0EFEAF3E00C940D0F6983F5
:100760007A838B839C83CE010196BE016B5F7F4FA2
:100770000E94D2048D81823061F1823050F1843048
:1007800021F48E81882351F12EC02F81388537FDC9
:1007900020C06E812F3131051CF06623F9F023C093
:1007A0008EE190E0821B930B29853A854B855C8511
:1007B00004C056954795379527958A95D2F76623B5
:1007C000B1F050954095309521953F4F4F4F5F4F79
:1007D0000EC020E030E040E050E009C02FEF3FEFD6
:1007E0004FEF5FE704C020E030E040E050E8B9019F
:1007F000CA012C96E2E00C94290FDF92EF92FF924F
:100800000F931F93FC01E480F58006811781D1804E
:100810008081823048F480E090E0A0E1B0E0E82AF6
:10082000F92A0A2B1B2BA5C0843009F49FC0823003
:1008300021F4EE24FF24870105C0E114F104010531
:10084000110519F4E0E0F0E096C0628173819FEF3A
:10085000623879070CF05BC022E83FEF261B370BAC
:100860002A3131052CF020E030E040E050E02AC091
:10087000B801A701022E04C0769567955795479554
:100880000A94D2F781E090E0A0E0B0E004C0880FC5
:10089000991FAA1FBB1F2A95D2F70197A109B10979
:1008A0008E219F21A023B1230097A105B10521F03E
:1008B00081E090E0A0E0B0E09A01AB01282B392B59
:1008C0004A2B5B2BDA01C9018F779070A070B07052
:1008D00080349105A105B10539F427FF09C0205CDA
:1008E0003F4F4F4F5F4F04C0215C3F4F4F4F5F4F13
:1008F000E0E0F0E02030A0E03A07A0E04A07A0E402
:100900005A0710F0E1E0F0E079018A0127C0603871
:10091000710564F5FB01E158FF4FD801C7018F77DE
:100920009070A070B07080349105A105B10539F4C4
:10093000E7FE0DC080E490E0A0E0B0E004C08FE3EB
:1009400090E0A0E0B0E0E80EF91E0A1F1B1F17FFA1
:1009500005C016950795F794E794319687E01695AC
:100960000795F794E7948A95D1F705C0EE24FF2404
:100970008701EFEFF0E06E2F679566276795902F60
:100980009F77D794DD24D7948E2F8695492F462BB9
:10099000582F5D29B701CA011F910F91FF90EF9069
:1009A000DF900895FC01DB01408151812281622F9B
:1009B0006F7770E0221F2227221F9381892F880FD3
:1009C000822B282F30E0991F9927991F11969C930D
:1009D000119721153105A9F54115510561057105DD
:1009E00011F482E037C082E89FEF13969C938E93B8
:1009F00012979A01AB0167E0220F331F441F551F66
:100A00006A95D1F783E08C930DC0220F331F441FEA
:100A1000551F12968D919C911397019713969C9355
:100A20008E931297203080E0380780E0480780E4FA
:100A3000580758F314962D933D934D935C93179755
:100A400008952F3F310579F4411551056105710570
:100A500019F484E08C93089564FF03C081E08C93C3
:100A600012C01C9210C02F57304013963C932E9307
:100A7000129783E08C9387E0440F551F661F771F02
:100A80008A95D1F7706414964D935D936D937C9322
:100A9000179708951F93DC01FB019C91923008F495
:100AA00047C08081823008F443C0943051F41196DD
:100AB0001C91843099F58181682F70E0611B710968
:100AC0003FC0843021F0923031F48230B9F181811D
:100AD000882389F12DC011961C9111978230F1F075
:100AE00081811817D9F412962D913C911397828128
:100AF00093818217930794F028173907BCF0149656
:100B00008D919D910D90BC91A02D248135814681C0
:100B10005781281739074A075B0718F4112341F05A
:100B20000AC082179307A407B50740F4112319F0F0
:100B300061E070E005C06FEF7FEF02C060E070E041
:100B4000CB011F910895DF93CF930F92CDB7DEB7FE
:100B5000198289818F7D898389818F7E89838981AB
:100B600082608983898184608983AAE2B0E0EAE2B5
:100B7000F0E080818B7F8C938981877F8983898155
:100B80008F7B8983AAE2B0E0EAE2F0E080818860AE
:100B90008C93AAE2B0E0EAE2F0E0808180618C937D
:100BA000898180688983E0E4F0E089818083E9E2DB
:100BB000F0E080E48083E0E4F0E010820F90CF91D9
:100BC000DF910895DF93CF930F92CDB7DEB789837E
:100BD000EBE2F0E08081829586958770882F90E027
:100BE000817090700097A1F3ECE2F0E0898180833E
:100BF0000F90CF91DF910895DF93CF9300D000D075
:100C000000D0CDB7DEB78E831D828091CC038823C0
:100C1000E1F519821A821B821C820BC089819A819C
:100C2000AB81BC810196A11DB11D89839A83AB83E1
:100C3000BC83EBE2F0E08081829586958770882FF7
:100C400090E081709070009761F489819A81AB8106
:100C5000BC81803523EC920720E0A20720E0B20798
:100C6000E9F689819A81AB81BC81803523EC9207BA
:100C700020E0A20720E0B20729F0ECE2F0E08E814C
:100C8000808305C081E08D8302C083E08D838D81E8
:100C900026960FB6F894DEBF0FBECDBFCF91DF9181
:100CA0000895DF93CF9300D000D0CDB7DEB79C83FB
:100CB0008B831A8219820FC029813A818B819C8192
:100CC000FC01E20FF31F80810E94E20589819A8175
:100CD00001969A83898329813A818B819C81FC01C9
:100CE000E20FF31F8081882339F70F900F900F9048
:100CF0000F90CF91DF910895DF93CF93CDB7DEB7FB
:100D0000EBE2F0E080818823DCF7ECE2F0E0808128
:100D1000CF91DF910895DF93CF9300D00F92CDB79D
:100D2000DEB79B838A8319828A819B81009761F059
:100D3000EBE2F0E080818823DCF7ECE2F0E08081F8
:100D4000EA81FB81808302C082E0898389810F90E0
:100D50000F900F90CF91DF910895DF93CF9300D044
:100D600000D00F92CDB7DEB79C838B836D831A8240
:100D70008B819C810097A1F019820DC08981282F59
:100D800030E08B819C81820F931F0E948B068A83A7
:100D900089818F5F898399818D81981778F302C04B
:100DA00082E08A838A810F900F900F900F900F90AE
:100DB000CF91DF910895DF93CF93CDB7DEB7AAE24D
:100DC000B0E0EAE2F0E08081877F8C93AAE2B0E0B5
:100DD000EAE2F0E080818F7E8C93CF91DF910895DD
:100DE000DF93CF93CDB7DEB728970FB6F894DEBF69
:100DF0000FBECDBF8A836B834C8319828B81883071
:100E000008F0F4C08C81882309F077C08A81282FEC
:100E100030E038872F838F8198858130910559F193
:100E20002F813885223031052CF48F8198850097E9
:100E300069F060C02F8138852230310589F18F81BA
:100E400098858330910509F440C054C0AAE3B0E00E
:100E5000EAE3F0E08081482F8B81282F30E081E0A9
:100E600090E0022E02C0880F991F0A94E2F7809545
:100E700084238C93BDC0A7E3B0E0E7E3F0E080817A
:100E8000482F8B81282F30E081E090E0022E02C0B5
:100E9000880F991F0A94E2F7809584238C93A8C049
:100EA000A4E3B0E0E4E3F0E08081482F8B81282FB9
:100EB00030E081E090E0022E02C0880F991F0A9472
:100EC000E2F7809584238C9393C0A1E3B0E0E1E343
:100ED000F0E08081482F8B81282F30E081E090E086
:100EE000022E02C0880F991F0A94E2F7809584238E
:100EF0008C937EC081E089837BC08C81813009F036
:100F000072C08A81282F30E03E832D838D819E819F
:100F10008130910549F12D813E81223031052CF43B
:100F20008D819E81009761F05BC02D813E812230D2
:100F3000310571F18D819E8183309105E9F150C0B9
:100F4000AAE3B0E0EAE3F0E08081482F8B81282F0C
:100F500030E081E090E0022E02C0880F991F0A94D1
:100F6000E2F7842B8C9344C0A7E3B0E0E7E3F0E022
:100F70008081482F8B81282F30E081E090E0022E85
:100F800002C0880F991F0A94E2F7842B8C9330C01B
:100F9000A4E3B0E0E4E3F0E08081482F8B81282FC8
:100FA00030E081E090E0022E02C0880F991F0A9481
:100FB000E2F7842B8C931CC0A1E3B0E0E1E3F0E006
:100FC0008081482F8B81282F30E081E090E0022E35
:100FD00002C0880F991F0A94E2F7842B8C9308C0F3
:100FE00081E0898305C081E0898302C081E0898333
:100FF000898128960FB6F894DEBF0FBECDBFCF9182
:10100000DF910895DF93CF9300D000D00F92CDB73A
:10101000DEB78A836B8319828A81282F30E03D8373
:101020002C838C819D8181309105D1F02C813D8173
:10103000223031052CF48C819D81009761F01FC016
:101040002C813D812230310581F08C819D8183305E
:10105000910581F014C0EAE3F0E08B81808311C038
:10106000E7E3F0E08B8180830CC0E4E3F0E08B8168
:10107000808307C0E1E3F0E08B81808302C081E0E0
:10108000898389810F900F900F900F900F90CF91CF
:10109000DF910895DF93CF93CDB7DEB728970FB6D2
:1010A000F894DEBF0FBECDBF8A836B834C83198259
:1010B0008B81883008F0F4C08C81882309F077C0D8
:1010C0008A81282F30E038872F838F81988581305F
:1010D000910559F12F813885223031052CF48F810B
:1010E0009885009769F060C02F81388522303105DE
:1010F00089F18F8198858330910509F440C054C0EF
:10110000ABE3B0E0EBE3F0E08081482F8B81282F48
:1011100030E081E090E0022E02C0880F991F0A940F
:10112000E2F7809584238C93BDC0A8E3B0E0E8E3A8
:10113000F0E08081482F8B81282F30E081E090E023
:10114000022E02C0880F991F0A94E2F7809584232B
:101150008C93A8C0A5E3B0E0E5E3F0E08081482FE0
:101160008B81282F30E081E090E0022E02C0880FB2
:10117000991F0A94E2F7809584238C9393C0A2E38D
:10118000B0E0E2E3F0E08081482F8B81282F30E04F
:1011900081E090E0022E02C0880F991F0A94E2F7C6
:1011A000809584238C937EC081E089837BC08C8171
:1011B000813009F072C08A81282F30E03E832D8370
:1011C0008D819E818130910549F12D813E812230B2
:1011D00031052CF48D819E81009761F05BC02D81DB
:1011E0003E812230310571F18D819E8183309105E0
:1011F000E9F150C0ABE3B0E0EBE3F0E08081482FD1
:101200008B81282F30E081E090E0022E02C0880F11
:10121000991F0A94E2F7842B8C9344C0A8E3B0E0B2
:10122000E8E3F0E08081482F8B81282F30E081E0D7
:1012300090E0022E02C0880F991F0A94E2F7842BD7
:101240008C9330C0A5E3B0E0E5E3F0E08081482F67
:101250008B81282F30E081E090E0022E02C0880FC1
:10126000991F0A94E2F7842B8C931CC0A2E3B0E090
:10127000E2E3F0E08081482F8B81282F30E081E08D
:1012800090E0022E02C0880F991F0A94E2F7842B87
:101290008C9308C081E0898305C081E0898302C006
:1012A00081E08983898128960FB6F894DEBF0FBE4E
:1012B000CDBFCF91DF910895DF93CF9300D000D0C1
:1012C0000F92CDB7DEB78A836B8319828A81282F6C
:1012D00030E03D832C838C819D8181309105D1F05C
:1012E0002C813D81223031052CF48C819D81009729
:1012F00061F01FC02C813D812230310581F08C814D
:101300009D818330910581F014C0EBE3F0E08B8187
:10131000808311C0E8E3F0E08B8180830CC0E5E3BB
:10132000F0E08B81808307C0E2E3F0E08B81808373
:1013300002C081E0898389810F900F900F900F90F8
:101340000F90CF91DF910895DF93CF93CDB7DEB7A4
:1013500027970FB6F894DEBF0FBECDBF8A836B838D
:101360005D834C8319828C819D81009709F478C03C
:101370008B81883008F074C08A81282F30E03F8349
:101380002E834E815F814130510559F18E819F81BD
:101390008230910534F42E813F812115310569F0A9
:1013A0005CC04E815F814230510579F18E819F8111
:1013B0008330910509F43DC050C0E9E3F0E080813D
:1013C000282F30E08B81882F90E0A90102C055952D
:1013D00047958A95E2F7CA018170EC81FD8180838F
:1013E00041C0E6E3F0E08081282F30E08B81882F38
:1013F00090E0A90102C0559547958A95E2F7CA0188
:101400008170EC81FD8180832DC0E3E3F0E0808179
:10141000282F30E08B81882F90E0A90102C05595DC
:1014200047958A95E2F7CA018170EC81FD8180833E
:1014300019C0E0E3F0E08081282F30E08B81882F15
:1014400090E0A90102C0559547958A95E2F7CA0137
:101450008170EC81FD81808305C081E0898302C0B9
:1014600081E08983898127960FB6F894DEBF0FBE8D
:10147000CDBFCF91DF910895DF93CF93CDB7DEB786
:10148000EAE3F0E01082E7E3F0E08FE78083E4E353
:10149000F0E01082E1E3F0E082E88083EBE3F0E04B
:1014A0001082E8E3F0E01082E5E3F0E01082E2E38E
:1014B000F0E01082CF91DF910895DF93CF9300D0B9
:1014C000CDB7DEB789836A8381E0698140E00E94FD
:1014D0004A0881E06A8141E00E944A080F900F901B
:1014E000CF91DF910895DF93CF9300D0CDB7DEB7D2
:1014F00089836A8381E06A8140E00E944A0881E032
:10150000698141E00E944A080F900F90CF91DF91CE
:101510000895DF93CF9300D0CDB7DEB789836A8378
:1015200081E06A8140E00E944A0881E0698140E0F0
:101530000E944A080F900F90CF91DF910895DF939A
:10154000CF93CDB7DEB7AD970FB6F894DEBF0FBE21
:10155000CDBFA8C180E690E00E9451068FEC93E0D9
:1015600065E00E94AD061BA680E090E0A8E4B3E42D
:101570008FA398A7A9A7BAA76FA178A589A59AA5AF
:1015800020E030E44CE155E40E941F02DC01CB0175
:101590008BA39CA3ADA3BEA36BA17CA18DA19EA197
:1015A00020E030E040E85FE30E94790388232CF4D8
:1015B00081E090E09AA389A33FC06BA17CA18DA19B
:1015C0009EA120E03FEF4FE757E40E941903181651
:1015D0004CF56FA178A589A59AA520E030E040E2FE
:1015E00051E40E941F02DC01CB01BC01CD010E942D
:1015F0004900DC01CB019AA389A30FC08AEF90E0D8
:1016000098A38F8F8F8D98A10197F1F798A38F8F53
:1016100089A19AA101979AA389A389A19AA1009768
:1016200069F714C06BA17CA18DA19EA10E94490005
:10163000DC01CB019AA389A389A19AA19E8F8D8FEA
:101640008D8D9E8D0197F1F79E8F8D8F1DA632C0D7
:101650001CA622C08CA5882F90E0FC01E153FC4F12
:1016600060818DA5282F30E08CA5482F50E0C9015E
:10167000880F991F880F991F820F931F840F951F42
:10168000FC01E259FC4F8081681719F48BA58F5F2C
:101690008BA78CA58F5F8CA78CA58530D8F28BA5E6
:1016A000853021F48DA58093D80307C01BA68DA596
:1016B0008F5F8DA78DA58A3058F28BA5853009F0F4
:1016C00076C081E08093CD0380E090E0AAE7B4E4A7
:1016D000898F9A8FAB8FBC8F698D7A8D8B8D9C8D06
:1016E00020E030E44CE155E40E941F02DC01CB0114
:1016F0008D8B9E8BAF8BB88F6D897E898F89988DEE
:1017000020E030E040E85FE30E94790388232CF476
:1017100081E090E09C8B8B8B3FC06D897E898F89A7
:10172000988D20E03FEF4FE757E40E941903181609
:101730004CF5698D7A8D8B8D9C8D20E030E040E2F8
:1017400051E40E941F02DC01CB01BC01CD010E94CB
:101750004900DC01CB019C8B8B8B0FC08AEF90E0A2
:101760009A8B898B89899A890197F1F79A8B898B52
:101770008B899C8901979C8B8B8B8B899C8900978B
:1017800069F790C06D897E898F89988D0E94490084
:10179000DC01CB019C8B8B8B8B899C89988B8F87F1
:1017A0008F8598890197F1F7988B8F877BC08091FF
:1017B000C90381508093C90381E790E00E945106DC
:1017C00080E090E0A6E9B3E48B879C87AD87BE8775
:1017D0006B857C858D859E8520E030E44CE155E469
:1017E0000E941F02DC01CB018F839887A987BA87EB
:1017F0006F81788589859A8520E030E040E85FE355
:101800000E94790388232CF481E090E09E838D83ED
:101810003FC06F81788589859A8520E03FEF4FE74B
:1018200057E40E94190318164CF56B857C858D854D
:101830009E8520E030E040E251E40E941F02DC017E
:10184000CB01BC01CD010E944900DC01CB019E838C
:101850008D830FC08AEF90E09C838B838B819C816A
:101860000197F1F79C838B838D819E8101979E83E5
:101870008D838D819E81009769F714C06F81788573
:1018800089859A850E944900DC01CB019E838D8366
:101890008D819E819A83898389819A810197F1F74D
:1018A0009A8389838091C903882329F08091CD038D
:1018B000882309F44FCE8091C903882349F480918D
:1018C000CD03882329F484E890E00E945106FFCFDD
:1018D000AD960FB6F894DEBF0FBECDBFCF91DF91AE
:1018E0000895DF93CF93CDB7DEB7AC970FB6F894DA
:1018F000DEBF0FBECDBFA5C185E990E00E945106B5
:1019000084ED93E064E00E94AD061BA680E090E0C9
:10191000A8E4B3E48FA398A7A9A7BAA76FA178A555
:1019200089A59AA520E030E44CE155E40E941F020D
:10193000DC01CB018BA39CA3ADA3BEA36BA17CA1B7
:101940008DA19EA120E030E040E85FE30E94790392
:1019500088232CF481E090E09AA389A33FC06BA177
:101960007CA18DA19EA120E03FEF4FE757E40E94AC
:10197000190318164CF56FA178A589A59AA520E042
:1019800030E040E251E40E941F02DC01CB01BC01C7
:10199000CD010E944900DC01CB019AA389A30FC0AD
:1019A0008AEF90E098A38F8F8F8D98A10197F1F720
:1019B00098A38F8F89A19AA101979AA389A389A13E
:1019C0009AA1009769F714C06BA17CA18DA19EA17B
:1019D0000E944900DC01CB019AA389A389A19AA1A5
:1019E0009E8F8D8F8D8D9E8D0197F1F79E8F8D8FA0
:1019F0001CA621C08CA5882F90E0FC01EC52FC4F66
:101A000060818091D803482F50E08CA5282F30E0CA
:101A1000CA01880F991F880F991F820F931FFC011D
:101A2000E056FC4F8081681719F48BA58F5F8BA758
:101A30008CA58F5F8CA78CA58430E0F28BA58430B9
:101A400009F084C081E08093CE0386EA90E00E9492
:101A5000510681E065E040E00E944A0881E066E0CE
:101A600041E00E944A0880E090E0AAE7B4E4898F50
:101A70009A8FAB8FBC8F698D7A8D8B8D9C8D20E07A
:101A800030E44CE155E40E941F02DC01CB018D8B58
:101A90009E8BAF8BB88F6D897E898F89988D20E062
:101AA00030E040E85FE30E94790388232CF481E072
:101AB00090E09C8B8B8B3FC06D897E898F89988D40
:101AC00020E03FEF4FE757E40E94190318164CF54A
:101AD000698D7A8D8B8D9C8D20E030E040E251E461
:101AE0000E941F02DC01CB01BC01CD010E94490014
:101AF000DC01CB019C8B8B8B0FC08AEF90E09A8B23
:101B0000898B89899A890197F1F79A8B898B8B89BF
:101B10009C8901979C8B8B8B8B899C89009769F79B
:101B200090C06D897E898F89988D0E944900DC0163
:101B3000CB019C8B8B8B8B899C89988B8F878F8516
:101B400098890197F1F7988B8F877BC08091CA03A2
:101B500081508093CA0389EB90E00E94510680E097
:101B600090E0A6E9B3E48B879C87AD87BE876B8541
:101B70007C858D859E8520E030E44CE155E40E9413
:101B80001F02DC01CB018F839887A987BA876F81F9
:101B9000788589859A8520E030E040E85FE30E94FF
:101BA000790388232CF481E090E09E838D833FC0ED
:101BB0006F81788589859A8520E03FEF4FE757E46C
:101BC0000E94190318164CF56B857C858D859E85C2
:101BD00020E030E040E251E40E941F02DC01CB0132
:101BE000BC01CD010E944900DC01CB019E838D83A5
:101BF0000FC08AEF90E09C838B838B819C8101973F
:101C0000F1F79C838B838D819E8101979E838D83C9
:101C10008D819E81009769F714C06F8178858985D1
:101C20009A850E944900DC01CB019E838D838D81C2
:101C30009E819A83898389819A810197F1F79A839A
:101C400089838091CA03882329F08091CE03882359
:101C500009F452CE8091CA03882349F48091CE03BF
:101C6000882329F487ED90E00E945106FFCFAC96BF
:101C70000FB6F894DEBF0FBECDBFCF91DF910895B0
:101C8000DF93CF9300D000D0CDB7DEB79C838B839A
:101C90008091C803813039F488EF90E00E945106AA
:101CA0001092C80304C087E092E00E945106898127
:101CB0009A810E948B06E981FA8180818133B8F391
:101CC000E981FA818081EB81FC8180830F900F9004
:101CD0000F900F90CF91DF910895DF93CF9300D0B5
:101CE0000F92CDB7DEB70E943C0A0E94A30581E0A7
:101CF00065E040E00E944A0881E066E040E00E9422
:101D00004A080E949F0A0E94710CCE0101960E940F
:101D1000400E8981282F30E03B832A838A819B8172
:101D20008433910509F442C02A813B812533310572
:101D300084F48A819B818233910529F12A813B8138
:101D40002333310554F58A819B818133910589F0D4
:101D50004FC02A813B8126333105D9F18A819B818D
:101D60008633910564F12A813B8127333105D9F10E
:101D70003FC081E060E041E00E944A0889E092E0D3
:101D80000E945106C2CF81E060E040E00E944A0814
:101D900082E192E00E945106B8CF82E061E00E94A9
:101DA000730A8CE192E00E945106AFCF81E062E0BD
:101DB0000E94890A85E292E00E945106A6CF81E046
:101DC00063E041E00E944A088FE292E00E945106DF
:101DD0009CCF81E063E040E00E944A088AE392E001
:101DE0000E94510692CF86E492E00E9451068DCF68
:101DF00085E593E00E94510688CF2F923F924F9243
:101E00005F926F927F928F929F92AF92BF92CF928A
:101E1000DF92EF92FF920F931F93CF93DF93CDB793
:101E2000DEB7CA1BDB0B0FB6F894DEBF0FBECDBF0B
:101E300009942A88398848885F846E847D848C84DC
:101E40009B84AA84B984C884DF80EE80FD800C81E5
:101E50001B81AA81B981CE0FD11D0FB6F894DEBFC8
:0C1E60000FBECDBFED010895F894FFCF38
:101E6C00456E74657220557365726E616D653A20AE
:101E7C0000496E76616C696420557365726E616D94
:101E8C0065200A00496E76616C6964205573657231
:101E9C006E616D6500456E74657220506173737769
:101EAC006F72643A200057656C636F6D6520486FE4
:101EBC006D6521203A29200A00496E76616C6964AF
:101ECC002050617373776F72642C20547279206187
:101EDC006761696E200A00496E76616C69642050F6
:101EEC00617373776F72642C206F7574206F66202A
:101EFC007472696573200A0043686F6F7365206F95
:101F0C006E65206F662074686520666F6C6C6F77E9
:101F1C00696E67206F7074696F6E733A200A2D3E7C
:101F2C0020746F207475726E206F6E20746865203B
:101F3C006C69676874732070726573732031200A42
:101F4C002D3E20746F207475726E206F666620743F
:101F5C006865206C69676874732070726573732090
:101F6C0032200A2D3E20746F207475726E206F6EB5
:101F7C00207468652066616E2070726573732033FF
:101F8C00200A2D3E20746F207475726E206F666669
:101F9C00207468652066616E2070726573732034DE
:101FAC00200A2D3E20746F207475726E206F6E2087
:101FBC0074686520736972656E2070726573732026
:101FCC0035200A2D3E20746F207475726E206F665A
:101FDC00662074686520736972656E207072657313
:101FEC00732036200A2D3E20746F20726570656157
:101FFC007420746865206D656E75207072657373DE
:10200C002037200A200A000A004C4544204F4E205D
:10201C000A004C4544204F4646200A0046414E20BB
:10202C004F4E200A0046414E204F4646200A005390
:10203C006972656E204F4E200A00536972656E20DE
:10204C004F4646200A0043686F6F7365206F6E65BC
:10205C00206F662074686520666F6C6C6F77696E94
:10206C0067206F7074696F6E733A200A2D3E20746E
:10207C006F207475726E206F6E20746865206C69A9
:10208C00676874732070726573732031200A2D3E5B
:10209C0020746F207475726E206F6666207468658C
:1020AC00206C6967687473207072657373203220BA
:1020BC000A2D3E20746F207475726E206F6E207422
:1020CC0068652066616E2070726573732033200A18
:1020DC002D3E20746F207475726E206F66662074AE
:1020EC0068652066616E2070726573732034200AF7
:1020FC002D3E20746F207475726E206F6E20746884
:10210C006520736972656E2070726573732035205B
:10211C000A2D3E20746F207475726E206F666620D7
:10212C0074686520736972656E20707265737320B4
:10213C0036200A2D3E20746F207265706561742004
:10214C00746865206D656E752070726573732037C9
:10215C00200A200A00496E76616C6964206F7074E5
:10216C00696F6E200A00000000000000000075730B
:10217C00657230757365723175736572327573651E
:10218C0072337573657234757365723575736572F8
:10219C003675736572377573657238757365723918
:1021AC00303030303131313132323232333333330B
:1021BC0034343434353535353636363637373737BB
:0C21CC003838383839393939010303003C
:00000001FF
